{
  "_format": "hh-sol-artifact-1",
  "contractName": "Blog",
  "sourceName": "contracts/Blog.sol",
  "abi": [
    {
      "inputs": [
        {
          "internalType": "string",
          "name": "_name",
          "type": "string"
        }
      ],
      "stateMutability": "nonpayable",
      "type": "constructor"
    },
    {
      "anonymous": false,
      "inputs": [
        {
          "indexed": false,
          "internalType": "uint256",
          "name": "id",
          "type": "uint256"
        },
        {
          "indexed": false,
          "internalType": "string",
          "name": "title",
          "type": "string"
        },
        {
          "indexed": false,
          "internalType": "string",
          "name": "hash",
          "type": "string"
        }
      ],
      "name": "PostCreated",
      "type": "event"
    },
    {
      "anonymous": false,
      "inputs": [
        {
          "indexed": false,
          "internalType": "uint256",
          "name": "id",
          "type": "uint256"
        },
        {
          "indexed": false,
          "internalType": "string",
          "name": "title",
          "type": "string"
        },
        {
          "indexed": false,
          "internalType": "string",
          "name": "hash",
          "type": "string"
        },
        {
          "indexed": false,
          "internalType": "bool",
          "name": "published",
          "type": "bool"
        }
      ],
      "name": "PostUpdated",
      "type": "event"
    },
    {
      "inputs": [
        {
          "internalType": "string",
          "name": "title",
          "type": "string"
        },
        {
          "internalType": "string",
          "name": "hash",
          "type": "string"
        }
      ],
      "name": "createPost",
      "outputs": [],
      "stateMutability": "nonpayable",
      "type": "function"
    },
    {
      "inputs": [
        {
          "internalType": "string",
          "name": "hash",
          "type": "string"
        }
      ],
      "name": "fetchPost",
      "outputs": [
        {
          "components": [
            {
              "internalType": "uint256",
              "name": "id",
              "type": "uint256"
            },
            {
              "internalType": "string",
              "name": "title",
              "type": "string"
            },
            {
              "internalType": "string",
              "name": "content",
              "type": "string"
            },
            {
              "internalType": "bool",
              "name": "published",
              "type": "bool"
            }
          ],
          "internalType": "struct Blog.Post",
          "name": "",
          "type": "tuple"
        }
      ],
      "stateMutability": "view",
      "type": "function"
    },
    {
      "inputs": [],
      "name": "fetchPosts",
      "outputs": [
        {
          "components": [
            {
              "internalType": "uint256",
              "name": "id",
              "type": "uint256"
            },
            {
              "internalType": "string",
              "name": "title",
              "type": "string"
            },
            {
              "internalType": "string",
              "name": "content",
              "type": "string"
            },
            {
              "internalType": "bool",
              "name": "published",
              "type": "bool"
            }
          ],
          "internalType": "struct Blog.Post[]",
          "name": "",
          "type": "tuple[]"
        }
      ],
      "stateMutability": "view",
      "type": "function"
    },
    {
      "inputs": [],
      "name": "name",
      "outputs": [
        {
          "internalType": "string",
          "name": "",
          "type": "string"
        }
      ],
      "stateMutability": "view",
      "type": "function"
    },
    {
      "inputs": [],
      "name": "owner",
      "outputs": [
        {
          "internalType": "address",
          "name": "",
          "type": "address"
        }
      ],
      "stateMutability": "view",
      "type": "function"
    },
    {
      "inputs": [
        {
          "internalType": "address",
          "name": "newOwner",
          "type": "address"
        }
      ],
      "name": "transferOwnership",
      "outputs": [],
      "stateMutability": "nonpayable",
      "type": "function"
    },
    {
      "inputs": [
        {
          "internalType": "string",
          "name": "_name",
          "type": "string"
        }
      ],
      "name": "updateName",
      "outputs": [],
      "stateMutability": "nonpayable",
      "type": "function"
    },
    {
      "inputs": [
        {
          "internalType": "uint256",
          "name": "postId",
          "type": "uint256"
        },
        {
          "internalType": "string",
          "name": "title",
          "type": "string"
        },
        {
          "internalType": "string",
          "name": "hash",
          "type": "string"
        },
        {
          "internalType": "bool",
          "name": "published",
          "type": "bool"
        }
      ],
      "name": "updatePost",
      "outputs": [],
      "stateMutability": "nonpayable",
      "type": "function"
    }
  ],
  "bytecode": "0x60806040523480156200001157600080fd5b5060405162001b7438038062001b748339818101604052810190620000379190620002d5565b620000836040518060400160405280601981526020017f4465706c6f79696e6720626c6f672077697468206e616d653a0000000000000081525082620000e460201b62000ad11760201c565b80600090805190602001906200009b929190620001b3565b5033600160006101000a81548173ffffffffffffffffffffffffffffffffffffffff021916908373ffffffffffffffffffffffffffffffffffffffff1602179055505062000522565b620001868282604051602401620000fd9291906200035b565b6040516020818303038152906040527f4b5c4277000000000000000000000000000000000000000000000000000000007bffffffffffffffffffffffffffffffffffffffffffffffffffffffff19166020820180517bffffffffffffffffffffffffffffffffffffffffffffffffffffffff83818316178352505050506200018a60201b60201c565b5050565b60008151905060006a636f6e736f6c652e6c6f679050602083016000808483855afa5050505050565b828054620001c19062000447565b90600052602060002090601f016020900481019282620001e5576000855562000231565b82601f106200020057805160ff191683800117855562000231565b8280016001018555821562000231579182015b828111156200023057825182559160200191906001019062000213565b5b50905062000240919062000244565b5090565b5b808211156200025f57600081600090555060010162000245565b5090565b60006200027a6200027484620003bf565b62000396565b9050828152602081018484840111156200029357600080fd5b620002a084828562000411565b509392505050565b600082601f830112620002ba57600080fd5b8151620002cc84826020860162000263565b91505092915050565b600060208284031215620002e857600080fd5b600082015167ffffffffffffffff8111156200030357600080fd5b6200031184828501620002a8565b91505092915050565b60006200032782620003f5565b62000333818562000400565b93506200034581856020860162000411565b620003508162000511565b840191505092915050565b600060408201905081810360008301526200037781856200031a565b905081810360208301526200038d81846200031a565b90509392505050565b6000620003a2620003b5565b9050620003b082826200047d565b919050565b6000604051905090565b600067ffffffffffffffff821115620003dd57620003dc620004e2565b5b620003e88262000511565b9050602081019050919050565b600081519050919050565b600082825260208201905092915050565b60005b838110156200043157808201518184015260208101905062000414565b8381111562000441576000848401525b50505050565b600060028204905060018216806200046057607f821691505b60208210811415620004775762000476620004b3565b5b50919050565b620004888262000511565b810181811067ffffffffffffffff82111715620004aa57620004a9620004e2565b5b80604052505050565b7f4e487b7100000000000000000000000000000000000000000000000000000000600052602260045260246000fd5b7f4e487b7100000000000000000000000000000000000000000000000000000000600052604160045260246000fd5b6000601f19601f8301169050919050565b61164280620005326000396000f3fe608060405234801561001057600080fd5b50600436106100885760003560e01c80638da5cb5b1161005b5780638da5cb5b14610113578063abaddd7f14610131578063cd349fe91461014f578063f2fde38b1461016b57610088565b806306fdde031461008d578063392338f5146100ab57806344828659146100c757806384da92a7146100f7575b600080fd5b610095610187565b6040516100a291906111c3565b60405180910390f35b6100c560048036038101906100c09190610e25565b610215565b005b6100e160048036038101906100dc9190610de4565b6103d0565b6040516100ee919061121c565b60405180910390f35b610111600480360381019061010c9190610de4565b610551565b005b61011b61056b565b6040516101289190611186565b60405180910390f35b610139610591565b60405161014691906111a1565b60405180910390f35b61016960048036038101906101649190610e91565b610809565b005b61018560048036038101906101809190610dbb565b610a33565b005b600080546101949061147d565b80601f01602080910402602001604051908101604052809291908181526020018280546101c09061147d565b801561020d5780601f106101e25761010080835404028352916020019161020d565b820191906000526020600020905b8154815290600101906020018083116101f057829003601f168201915b505050505081565b600160009054906101000a900473ffffffffffffffffffffffffffffffffffffffff1673ffffffffffffffffffffffffffffffffffffffff163373ffffffffffffffffffffffffffffffffffffffff161461026f57600080fd5b6102796002610b6d565b60006102856002610b83565b90506000600360008381526020019081526020016000209050818160000181905550838160010190805190602001906102bf929190610bba565b5060018160030160006101000a81548160ff021916908315150217905550828160020190805190602001906102f5929190610bba565b5080600484604051610307919061116f565b90815260200160405180910390206000820154816000015560018201816001019080546103339061147d565b61033e929190610c40565b5060028201816002019080546103539061147d565b61035e929190610c40565b506003820160009054906101000a900460ff168160030160006101000a81548160ff0219169083151502179055509050507fe6851f0b99a9d86e5d68a97f65218980851216ce297f789c6b6b7e82ca1d90c88285856040516103c29392919061123e565b60405180910390a150505050565b6103d8610ccd565b6004826040516103e8919061116f565b90815260200160405180910390206040518060800160405290816000820154815260200160018201805461041b9061147d565b80601f01602080910402602001604051908101604052809291908181526020018280546104479061147d565b80156104945780601f1061046957610100808354040283529160200191610494565b820191906000526020600020905b81548152906001019060200180831161047757829003601f168201915b505050505081526020016002820180546104ad9061147d565b80601f01602080910402602001604051908101604052809291908181526020018280546104d99061147d565b80156105265780601f106104fb57610100808354040283529160200191610526565b820191906000526020600020905b81548152906001019060200180831161050957829003601f168201915b505050505081526020016003820160009054906101000a900460ff1615151515815250509050919050565b8060009080519060200190610567929190610bba565b5050565b600160009054906101000a900473ffffffffffffffffffffffffffffffffffffffff1681565b6060600061059f6002610b83565b905060008167ffffffffffffffff8111156105e3577f4e487b7100000000000000000000000000000000000000000000000000000000600052604160045260246000fd5b60405190808252806020026020018201604052801561061c57816020015b610609610ccd565b8152602001906001900390816106015790505b50905060005b82811015610800576000600182610639919061139d565b9050600060036000838152602001908152602001600020905080604051806080016040529081600082015481526020016001820180546106789061147d565b80601f01602080910402602001604051908101604052809291908181526020018280546106a49061147d565b80156106f15780601f106106c6576101008083540402835291602001916106f1565b820191906000526020600020905b8154815290600101906020018083116106d457829003601f168201915b5050505050815260200160028201805461070a9061147d565b80601f01602080910402602001604051908101604052809291908181526020018280546107369061147d565b80156107835780601f1061075857610100808354040283529160200191610783565b820191906000526020600020905b81548152906001019060200180831161076657829003601f168201915b505050505081526020016003820160009054906101000a900460ff1615151515815250508484815181106107e0577f4e487b7100000000000000000000000000000000000000000000000000000000600052603260045260246000fd5b6020026020010181905250505080806107f8906114e0565b915050610622565b50809250505090565b600160009054906101000a900473ffffffffffffffffffffffffffffffffffffffff1673ffffffffffffffffffffffffffffffffffffffff163373ffffffffffffffffffffffffffffffffffffffff161461086357600080fd5b600060036000868152602001908152602001600020905083816001019080519060200190610892929190610bba565b50828160020190805190602001906108ab929190610bba565b50818160030160006101000a81548160ff02191690831515021790555080600360008781526020019081526020016000206000820154816000015560018201816001019080546108fa9061147d565b610905929190610c40565b50600282018160020190805461091a9061147d565b610925929190610c40565b506003820160009054906101000a900460ff168160030160006101000a81548160ff02191690831515021790555090505080600484604051610967919061116f565b90815260200160405180910390206000820154816000015560018201816001019080546109939061147d565b61099e929190610c40565b5060028201816002019080546109b39061147d565b6109be929190610c40565b506003820160009054906101000a900460ff168160030160006101000a81548160ff0219169083151502179055509050507f9f8eb93fc073102bbd3072664634ab200707a4f11d94aace9cc8d0e4d019eff585858585604051610a249493929190611283565b60405180910390a15050505050565b600160009054906101000a900473ffffffffffffffffffffffffffffffffffffffff1673ffffffffffffffffffffffffffffffffffffffff163373ffffffffffffffffffffffffffffffffffffffff1614610a8d57600080fd5b80600160006101000a81548173ffffffffffffffffffffffffffffffffffffffff021916908373ffffffffffffffffffffffffffffffffffffffff16021790555050565b610b698282604051602401610ae79291906111e5565b6040516020818303038152906040527f4b5c4277000000000000000000000000000000000000000000000000000000007bffffffffffffffffffffffffffffffffffffffffffffffffffffffff19166020820180517bffffffffffffffffffffffffffffffffffffffffffffffffffffffff8381831617835250505050610b91565b5050565b6001816000016000828254019250508190555050565b600081600001549050919050565b60008151905060006a636f6e736f6c652e6c6f679050602083016000808483855afa5050505050565b828054610bc69061147d565b90600052602060002090601f016020900481019282610be85760008555610c2f565b82601f10610c0157805160ff1916838001178555610c2f565b82800160010185558215610c2f579182015b82811115610c2e578251825591602001919060010190610c13565b5b509050610c3c9190610cf7565b5090565b828054610c4c9061147d565b90600052602060002090601f016020900481019282610c6e5760008555610cbc565b82601f10610c7f5780548555610cbc565b82800160010185558215610cbc57600052602060002091601f016020900482015b82811115610cbb578254825591600101919060010190610ca0565b5b509050610cc99190610cf7565b5090565b60405180608001604052806000815260200160608152602001606081526020016000151581525090565b5b80821115610d10576000816000905550600101610cf8565b5090565b6000610d27610d22846112fb565b6112d6565b905082815260208101848484011115610d3f57600080fd5b610d4a84828561143b565b509392505050565b600081359050610d61816115c7565b92915050565b600081359050610d76816115de565b92915050565b600082601f830112610d8d57600080fd5b8135610d9d848260208601610d14565b91505092915050565b600081359050610db5816115f5565b92915050565b600060208284031215610dcd57600080fd5b6000610ddb84828501610d52565b91505092915050565b600060208284031215610df657600080fd5b600082013567ffffffffffffffff811115610e1057600080fd5b610e1c84828501610d7c565b91505092915050565b60008060408385031215610e3857600080fd5b600083013567ffffffffffffffff811115610e5257600080fd5b610e5e85828601610d7c565b925050602083013567ffffffffffffffff811115610e7b57600080fd5b610e8785828601610d7c565b9150509250929050565b60008060008060808587031215610ea757600080fd5b6000610eb587828801610da6565b945050602085013567ffffffffffffffff811115610ed257600080fd5b610ede87828801610d7c565b935050604085013567ffffffffffffffff811115610efb57600080fd5b610f0787828801610d7c565b9250506060610f1887828801610d67565b91505092959194509250565b6000610f30838361107d565b905092915050565b610f41816113f3565b82525050565b6000610f528261133c565b610f5c818561135f565b935083602082028501610f6e8561132c565b8060005b85811015610faa5784840389528151610f8b8582610f24565b9450610f9683611352565b925060208a01995050600181019050610f72565b50829750879550505050505092915050565b610fc581611405565b82525050565b610fd481611405565b82525050565b6000610fe582611347565b610fef8185611370565b9350610fff81856020860161144a565b611008816115b6565b840191505092915050565b600061101e82611347565b6110288185611381565b935061103881856020860161144a565b611041816115b6565b840191505092915050565b600061105782611347565b6110618185611392565b935061107181856020860161144a565b80840191505092915050565b60006080830160008301516110956000860182611151565b50602083015184820360208601526110ad8282610fda565b915050604083015184820360408601526110c78282610fda565b91505060608301516110dc6060860182610fbc565b508091505092915050565b60006080830160008301516110ff6000860182611151565b50602083015184820360208601526111178282610fda565b915050604083015184820360408601526111318282610fda565b91505060608301516111466060860182610fbc565b508091505092915050565b61115a81611431565b82525050565b61116981611431565b82525050565b600061117b828461104c565b915081905092915050565b600060208201905061119b6000830184610f38565b92915050565b600060208201905081810360008301526111bb8184610f47565b905092915050565b600060208201905081810360008301526111dd8184611013565b905092915050565b600060408201905081810360008301526111ff8185611013565b905081810360208301526112138184611013565b90509392505050565b6000602082019050818103600083015261123681846110e7565b905092915050565b60006060820190506112536000830186611160565b81810360208301526112658185611013565b905081810360408301526112798184611013565b9050949350505050565b60006080820190506112986000830187611160565b81810360208301526112aa8186611013565b905081810360408301526112be8185611013565b90506112cd6060830184610fcb565b95945050505050565b60006112e06112f1565b90506112ec82826114af565b919050565b6000604051905090565b600067ffffffffffffffff82111561131657611315611587565b5b61131f826115b6565b9050602081019050919050565b6000819050602082019050919050565b600081519050919050565b600081519050919050565b6000602082019050919050565b600082825260208201905092915050565b600082825260208201905092915050565b600082825260208201905092915050565b600081905092915050565b60006113a882611431565b91506113b383611431565b9250827fffffffffffffffffffffffffffffffffffffffffffffffffffffffffffffffff038211156113e8576113e7611529565b5b828201905092915050565b60006113fe82611411565b9050919050565b60008115159050919050565b600073ffffffffffffffffffffffffffffffffffffffff82169050919050565b6000819050919050565b82818337600083830152505050565b60005b8381101561146857808201518184015260208101905061144d565b83811115611477576000848401525b50505050565b6000600282049050600182168061149557607f821691505b602082108114156114a9576114a8611558565b5b50919050565b6114b8826115b6565b810181811067ffffffffffffffff821117156114d7576114d6611587565b5b80604052505050565b60006114eb82611431565b91507fffffffffffffffffffffffffffffffffffffffffffffffffffffffffffffffff82141561151e5761151d611529565b5b600182019050919050565b7f4e487b7100000000000000000000000000000000000000000000000000000000600052601160045260246000fd5b7f4e487b7100000000000000000000000000000000000000000000000000000000600052602260045260246000fd5b7f4e487b7100000000000000000000000000000000000000000000000000000000600052604160045260246000fd5b6000601f19601f8301169050919050565b6115d0816113f3565b81146115db57600080fd5b50565b6115e781611405565b81146115f257600080fd5b50565b6115fe81611431565b811461160957600080fd5b5056fea2646970667358221220ba81b33638a97ea7a7d55f83ac7afa9b13958c4e136aa4057dcca026c8daef0b64736f6c63430008040033",
  "linkReferences": {},
  "deployedLinkReferences": {}
}